{
  "_format": "hh-sol-artifact-1",
  "contractName": "creat",
  "sourceName": "contracts/votingcontract.sol",
  "abi": [
    {
      "inputs": [],
      "stateMutability": "nonpayable",
      "type": "constructor"
    },
    {
      "anonymous": false,
      "inputs": [
        {
          "indexed": true,
          "internalType": "uint256",
          "name": "voter_voterId",
          "type": "uint256"
        },
        {
          "indexed": false,
          "internalType": "string",
          "name": "voter_name",
          "type": "string"
        },
        {
          "indexed": false,
          "internalType": "string",
          "name": "voter_image",
          "type": "string"
        },
        {
          "indexed": false,
          "internalType": "address",
          "name": "voter_address",
          "type": "address"
        },
        {
          "indexed": false,
          "internalType": "uint256",
          "name": "voter_allowed",
          "type": "uint256"
        },
        {
          "indexed": false,
          "internalType": "bool",
          "name": "voter_voted",
          "type": "bool"
        },
        {
          "indexed": false,
          "internalType": "uint256",
          "name": "voter_vote",
          "type": "uint256"
        },
        {
          "indexed": false,
          "internalType": "string",
          "name": "voter_ipfs",
          "type": "string"
        }
      ],
      "name": "VoterCreated",
      "type": "event"
    },
    {
      "anonymous": false,
      "inputs": [
        {
          "indexed": false,
          "internalType": "uint256",
          "name": "candidateId",
          "type": "uint256"
        },
        {
          "indexed": false,
          "internalType": "string",
          "name": "age",
          "type": "string"
        },
        {
          "indexed": false,
          "internalType": "string",
          "name": "name",
          "type": "string"
        },
        {
          "indexed": false,
          "internalType": "string",
          "name": "image",
          "type": "string"
        },
        {
          "indexed": false,
          "internalType": "uint256",
          "name": "voteCount",
          "type": "uint256"
        },
        {
          "indexed": false,
          "internalType": "address",
          "name": "_address",
          "type": "address"
        },
        {
          "indexed": false,
          "internalType": "string",
          "name": "ipfs",
          "type": "string"
        }
      ],
      "name": "candidateCreate",
      "type": "event"
    },
    {
      "inputs": [],
      "name": "_candidateId",
      "outputs": [
        {
          "internalType": "uint256",
          "name": "_value",
          "type": "uint256"
        }
      ],
      "stateMutability": "view",
      "type": "function"
    },
    {
      "inputs": [],
      "name": "_voterId",
      "outputs": [
        {
          "internalType": "uint256",
          "name": "_value",
          "type": "uint256"
        }
      ],
      "stateMutability": "view",
      "type": "function"
    },
    {
      "inputs": [
        {
          "internalType": "uint256",
          "name": "",
          "type": "uint256"
        }
      ],
      "name": "candidateaddress",
      "outputs": [
        {
          "internalType": "address",
          "name": "",
          "type": "address"
        }
      ],
      "stateMutability": "view",
      "type": "function"
    },
    {
      "inputs": [
        {
          "internalType": "address",
          "name": "",
          "type": "address"
        }
      ],
      "name": "candidates",
      "outputs": [
        {
          "internalType": "uint256",
          "name": "candidateId",
          "type": "uint256"
        },
        {
          "internalType": "string",
          "name": "age",
          "type": "string"
        },
        {
          "internalType": "string",
          "name": "name",
          "type": "string"
        },
        {
          "internalType": "string",
          "name": "image",
          "type": "string"
        },
        {
          "internalType": "uint256",
          "name": "voteCount",
          "type": "uint256"
        },
        {
          "internalType": "address",
          "name": "_address",
          "type": "address"
        },
        {
          "internalType": "string",
          "name": "ipfs",
          "type": "string"
        }
      ],
      "stateMutability": "view",
      "type": "function"
    },
    {
      "inputs": [],
      "name": "getCandidate",
      "outputs": [
        {
          "internalType": "address[]",
          "name": "",
          "type": "address[]"
        }
      ],
      "stateMutability": "view",
      "type": "function"
    },
    {
      "inputs": [],
      "name": "getCandidateLength",
      "outputs": [
        {
          "internalType": "uint256",
          "name": "",
          "type": "uint256"
        }
      ],
      "stateMutability": "view",
      "type": "function"
    },
    {
      "inputs": [
        {
          "internalType": "address",
          "name": "_address",
          "type": "address"
        }
      ],
      "name": "getCandidatedata",
      "outputs": [
        {
          "internalType": "string",
          "name": "",
          "type": "string"
        },
        {
          "internalType": "string",
          "name": "",
          "type": "string"
        },
        {
          "internalType": "uint256",
          "name": "",
          "type": "uint256"
        },
        {
          "internalType": "string",
          "name": "",
          "type": "string"
        },
        {
          "internalType": "uint256",
          "name": "",
          "type": "uint256"
        },
        {
          "internalType": "string",
          "name": "",
          "type": "string"
        },
        {
          "internalType": "address",
          "name": "",
          "type": "address"
        }
      ],
      "stateMutability": "view",
      "type": "function"
    },
    {
      "inputs": [],
      "name": "getVoterLength",
      "outputs": [
        {
          "internalType": "uint256",
          "name": "",
          "type": "uint256"
        }
      ],
      "stateMutability": "view",
      "type": "function"
    },
    {
      "inputs": [],
      "name": "getVoterList",
      "outputs": [
        {
          "internalType": "address[]",
          "name": "",
          "type": "address[]"
        }
      ],
      "stateMutability": "view",
      "type": "function"
    },
    {
      "inputs": [
        {
          "internalType": "address",
          "name": "_address",
          "type": "address"
        }
      ],
      "name": "getVoterdata",
      "outputs": [
        {
          "internalType": "uint256",
          "name": "",
          "type": "uint256"
        },
        {
          "internalType": "string",
          "name": "",
          "type": "string"
        },
        {
          "internalType": "string",
          "name": "",
          "type": "string"
        },
        {
          "internalType": "address",
          "name": "",
          "type": "address"
        },
        {
          "internalType": "string",
          "name": "",
          "type": "string"
        },
        {
          "internalType": "uint256",
          "name": "",
          "type": "uint256"
        },
        {
          "internalType": "bool",
          "name": "",
          "type": "bool"
        }
      ],
      "stateMutability": "view",
      "type": "function"
    },
    {
      "inputs": [],
      "name": "getvoterList",
      "outputs": [
        {
          "internalType": "address[]",
          "name": "",
          "type": "address[]"
        }
      ],
      "stateMutability": "view",
      "type": "function"
    },
    {
      "inputs": [
        {
          "internalType": "address",
          "name": "_address",
          "type": "address"
        },
        {
          "internalType": "string",
          "name": "_age",
          "type": "string"
        },
        {
          "internalType": "string",
          "name": "_name",
          "type": "string"
        },
        {
          "internalType": "string",
          "name": "_image",
          "type": "string"
        },
        {
          "internalType": "string",
          "name": "_ipfs",
          "type": "string"
        }
      ],
      "name": "setCandidate",
      "outputs": [],
      "stateMutability": "nonpayable",
      "type": "function"
    },
    {
      "inputs": [
        {
          "internalType": "address",
          "name": "_candidateAddress",
          "type": "address"
        },
        {
          "internalType": "uint256",
          "name": "_candidateVoteId",
          "type": "uint256"
        }
      ],
      "name": "vote",
      "outputs": [],
      "stateMutability": "nonpayable",
      "type": "function"
    },
    {
      "inputs": [
        {
          "internalType": "uint256",
          "name": "",
          "type": "uint256"
        }
      ],
      "name": "votedVoters",
      "outputs": [
        {
          "internalType": "address",
          "name": "",
          "type": "address"
        }
      ],
      "stateMutability": "view",
      "type": "function"
    },
    {
      "inputs": [
        {
          "internalType": "address",
          "name": "_address",
          "type": "address"
        },
        {
          "internalType": "string",
          "name": "_name",
          "type": "string"
        },
        {
          "internalType": "string",
          "name": "_image",
          "type": "string"
        },
        {
          "internalType": "string",
          "name": "_ipfs",
          "type": "string"
        }
      ],
      "name": "voterRight",
      "outputs": [],
      "stateMutability": "nonpayable",
      "type": "function"
    },
    {
      "inputs": [
        {
          "internalType": "address",
          "name": "",
          "type": "address"
        }
      ],
      "name": "voters",
      "outputs": [
        {
          "internalType": "uint256",
          "name": "voter_voterId",
          "type": "uint256"
        },
        {
          "internalType": "string",
          "name": "voter_name",
          "type": "string"
        },
        {
          "internalType": "string",
          "name": "voter_image",
          "type": "string"
        },
        {
          "internalType": "address",
          "name": "voter_address",
          "type": "address"
        },
        {
          "internalType": "uint256",
          "name": "voter_allowed",
          "type": "uint256"
        },
        {
          "internalType": "bool",
          "name": "voter_voted",
          "type": "bool"
        },
        {
          "internalType": "uint256",
          "name": "voter_vote",
          "type": "uint256"
        },
        {
          "internalType": "string",
          "name": "voter_ipfs",
          "type": "string"
        }
      ],
      "stateMutability": "view",
      "type": "function"
    },
    {
      "inputs": [
        {
          "internalType": "uint256",
          "name": "",
          "type": "uint256"
        }
      ],
      "name": "votersaddress",
      "outputs": [
        {
          "internalType": "address",
          "name": "",
          "type": "address"
        }
      ],
      "stateMutability": "view",
      "type": "function"
    },
    {
      "inputs": [],
      "name": "votingOrganizer",
      "outputs": [
        {
          "internalType": "address",
          "name": "",
          "type": "address"
        }
      ],
      "stateMutability": "view",
      "type": "function"
    }
  ],
  "bytecode": "0x608060405234801561001057600080fd5b5033600260006101000a81548173ffffffffffffffffffffffffffffffffffffffff021916908373ffffffffffffffffffffffffffffffffffffffff1602179055506127b5806100616000396000f3fe608060405234801561001057600080fd5b50600436106101165760003560e01c8063a7388967116100a2578063b9be315211610071578063b9be31521461030a578063c5036fd414610328578063c91ec7121461035e578063c9e2acfe1461037a578063f7522a83146103aa57610116565b8063a738896714610268578063ab7eb9b814610286578063b28d92ae146102b6578063b63c82ca146102d457610116565b806370218b85116100e957806370218b851461018f5780637831ffb3146101ad5780638415d949146101dd5780638ab66a90146101fb578063a3ec138d1461023157610116565b80630361419e1461011b57806305ad45a4146101375780635cc48aa7146101555780635f74bbde14610173575b600080fd5b61013560048036038101906101309190611b73565b6103c8565b005b61013f610637565b60405161014c9190611c47565b60405180910390f35b61015d610644565b60405161016a9190611c71565b60405180910390f35b61018d60048036038101906101889190611cb8565b61066a565b005b610197610831565b6040516101a49190611db6565b60405180910390f35b6101c760048036038101906101c29190611dd8565b6108bf565b6040516101d49190611c71565b60405180910390f35b6101e56108fe565b6040516101f29190611db6565b60405180910390f35b61021560048036038101906102109190611e05565b61098c565b6040516102289796959493929190611eb1565b60405180910390f35b61024b60048036038101906102469190611e05565b610c0e565b60405161025f989796959493929190611f57565b60405180910390f35b610270610e1b565b60405161027d9190611c47565b60405180910390f35b6102a0600480360381019061029b9190611dd8565b610e27565b6040516102ad9190611c71565b60405180910390f35b6102be610e66565b6040516102cb9190611db6565b60405180910390f35b6102ee60048036038101906102e99190611e05565b610ef4565b6040516103019796959493929190611fea565b60405180910390f35b61031261133b565b60405161031f9190611c47565b60405180910390f35b610342600480360381019061033d9190611e05565b611347565b6040516103559796959493929190612075565b60405180910390f35b610378600480360381019061037391906120f9565b61170f565b005b610394600480360381019061038f9190611dd8565b61194b565b6040516103a19190611c71565b60405180910390f35b6103b261198a565b6040516103bf9190611c47565b60405180910390f35b3373ffffffffffffffffffffffffffffffffffffffff16600260009054906101000a900473ffffffffffffffffffffffffffffffffffffffff1673ffffffffffffffffffffffffffffffffffffffff1614610458576040517f08c379a000000000000000000000000000000000000000000000000000000000815260040161044f90612230565b60405180910390fd5b6104626000611997565b600061046e60006119ad565b90506000600760008773ffffffffffffffffffffffffffffffffffffffff1673ffffffffffffffffffffffffffffffffffffffff168152602001908152602001600020905060008160040154146104c457600080fd5b60018160040181905550848160010190816104df919061245c565b50838160020190816104f1919061245c565b50858160030160006101000a81548173ffffffffffffffffffffffffffffffffffffffff021916908373ffffffffffffffffffffffffffffffffffffffff1602179055506103e8816006018190555060008160050160006101000a81548160ff0219169083151502179055508281600701908161056e919061245c565b506006869080600181540180825580915050600190039060005260206000200160009091909190916101000a81548173ffffffffffffffffffffffffffffffffffffffff021916908373ffffffffffffffffffffffffffffffffffffffff160217905550817ff5f39971dd62d9929e3a9feaa6bb77fe7c7da0001babff8a65a7e51ad0201c1986868985600401548660050160009054906101000a900460ff1687600601548a604051610627979695949392919061252e565b60405180910390a2505050505050565b6000600680549050905090565b600260009054906101000a900473ffffffffffffffffffffffffffffffffffffffff1681565b6000600760003373ffffffffffffffffffffffffffffffffffffffff1673ffffffffffffffffffffffffffffffffffffffff16815260200190815260200160002090508060050160009054906101000a900460ff16156106ff576040517f08c379a00000000000000000000000000000000000000000000000000000000081526004016106f6906125fe565b60405180910390fd5b6000816004015403610746576040517f08c379a000000000000000000000000000000000000000000000000000000000815260040161073d9061266a565b60405180910390fd5b60018160050160006101000a81548160ff0219169083151502179055508181600601819055506005339080600181540180825580915050600190039060005260206000200160009091909190916101000a81548173ffffffffffffffffffffffffffffffffffffffff021916908373ffffffffffffffffffffffffffffffffffffffff1602179055508060040154600460008573ffffffffffffffffffffffffffffffffffffffff1673ffffffffffffffffffffffffffffffffffffffff168152602001908152602001600020600401600082825461082591906126b9565b92505081905550505050565b606060038054806020026020016040519081016040528092919081815260200182805480156108b557602002820191906000526020600020905b8160009054906101000a900473ffffffffffffffffffffffffffffffffffffffff1673ffffffffffffffffffffffffffffffffffffffff168152602001906001019080831161086b575b5050505050905090565b600581815481106108cf57600080fd5b906000526020600020016000915054906101000a900473ffffffffffffffffffffffffffffffffffffffff1681565b6060600580548060200260200160405190810160405280929190818152602001828054801561098257602002820191906000526020600020905b8160009054906101000a900473ffffffffffffffffffffffffffffffffffffffff1673ffffffffffffffffffffffffffffffffffffffff1681526020019060010190808311610938575b5050505050905090565b60046020528060005260406000206000915090508060000154908060010180546109b59061227f565b80601f01602080910402602001604051908101604052809291908181526020018280546109e19061227f565b8015610a2e5780601f10610a0357610100808354040283529160200191610a2e565b820191906000526020600020905b815481529060010190602001808311610a1157829003601f168201915b505050505090806002018054610a439061227f565b80601f0160208091040260200160405190810160405280929190818152602001828054610a6f9061227f565b8015610abc5780601f10610a9157610100808354040283529160200191610abc565b820191906000526020600020905b815481529060010190602001808311610a9f57829003601f168201915b505050505090806003018054610ad19061227f565b80601f0160208091040260200160405190810160405280929190818152602001828054610afd9061227f565b8015610b4a5780601f10610b1f57610100808354040283529160200191610b4a565b820191906000526020600020905b815481529060010190602001808311610b2d57829003601f168201915b5050505050908060040154908060050160009054906101000a900473ffffffffffffffffffffffffffffffffffffffff1690806006018054610b8b9061227f565b80601f0160208091040260200160405190810160405280929190818152602001828054610bb79061227f565b8015610c045780601f10610bd957610100808354040283529160200191610c04565b820191906000526020600020905b815481529060010190602001808311610be757829003601f168201915b5050505050905087565b6007602052806000526040600020600091509050806000015490806001018054610c379061227f565b80601f0160208091040260200160405190810160405280929190818152602001828054610c639061227f565b8015610cb05780601f10610c8557610100808354040283529160200191610cb0565b820191906000526020600020905b815481529060010190602001808311610c9357829003601f168201915b505050505090806002018054610cc59061227f565b80601f0160208091040260200160405190810160405280929190818152602001828054610cf19061227f565b8015610d3e5780601f10610d1357610100808354040283529160200191610d3e565b820191906000526020600020905b815481529060010190602001808311610d2157829003601f168201915b5050505050908060030160009054906101000a900473ffffffffffffffffffffffffffffffffffffffff16908060040154908060050160009054906101000a900460ff1690806006015490806007018054610d989061227f565b80601f0160208091040260200160405190810160405280929190818152602001828054610dc49061227f565b8015610e115780601f10610de657610100808354040283529160200191610e11565b820191906000526020600020905b815481529060010190602001808311610df457829003601f168201915b5050505050905088565b60018060000154905081565b60068181548110610e3757600080fd5b906000526020600020016000915054906101000a900473ffffffffffffffffffffffffffffffffffffffff1681565b60606006805480602002602001604051908101604052809291908181526020018280548015610eea57602002820191906000526020600020905b8160009054906101000a900473ffffffffffffffffffffffffffffffffffffffff1673ffffffffffffffffffffffffffffffffffffffff1681526020019060010190808311610ea0575b5050505050905090565b60608060006060600060606000600460008973ffffffffffffffffffffffffffffffffffffffff1673ffffffffffffffffffffffffffffffffffffffff168152602001908152602001600020600101600460008a73ffffffffffffffffffffffffffffffffffffffff1673ffffffffffffffffffffffffffffffffffffffff168152602001908152602001600020600201600460008b73ffffffffffffffffffffffffffffffffffffffff1673ffffffffffffffffffffffffffffffffffffffff16815260200190815260200160002060000154600460008c73ffffffffffffffffffffffffffffffffffffffff1673ffffffffffffffffffffffffffffffffffffffff168152602001908152602001600020600301600460008d73ffffffffffffffffffffffffffffffffffffffff1673ffffffffffffffffffffffffffffffffffffffff16815260200190815260200160002060040154600460008e73ffffffffffffffffffffffffffffffffffffffff1673ffffffffffffffffffffffffffffffffffffffff168152602001908152602001600020600601600460008f73ffffffffffffffffffffffffffffffffffffffff1673ffffffffffffffffffffffffffffffffffffffff16815260200190815260200160002060050160009054906101000a900473ffffffffffffffffffffffffffffffffffffffff168680546110fe9061227f565b80601f016020809104026020016040519081016040528092919081815260200182805461112a9061227f565b80156111775780601f1061114c57610100808354040283529160200191611177565b820191906000526020600020905b81548152906001019060200180831161115a57829003601f168201915b5050505050965085805461118a9061227f565b80601f01602080910402602001604051908101604052809291908181526020018280546111b69061227f565b80156112035780601f106111d857610100808354040283529160200191611203565b820191906000526020600020905b8154815290600101906020018083116111e657829003601f168201915b505050505095508380546112169061227f565b80601f01602080910402602001604051908101604052809291908181526020018280546112429061227f565b801561128f5780601f106112645761010080835404028352916020019161128f565b820191906000526020600020905b81548152906001019060200180831161127257829003601f168201915b505050505093508180546112a29061227f565b80601f01602080910402602001604051908101604052809291908181526020018280546112ce9061227f565b801561131b5780601f106112f05761010080835404028352916020019161131b565b820191906000526020600020905b8154815290600101906020018083116112fe57829003601f168201915b505050505091509650965096509650965096509650919395979092949650565b60008060000154905081565b600060608060006060600080600760008973ffffffffffffffffffffffffffffffffffffffff1673ffffffffffffffffffffffffffffffffffffffff16815260200190815260200160002060000154600760008a73ffffffffffffffffffffffffffffffffffffffff1673ffffffffffffffffffffffffffffffffffffffff168152602001908152602001600020600101600760008b73ffffffffffffffffffffffffffffffffffffffff1673ffffffffffffffffffffffffffffffffffffffff168152602001908152602001600020600201600760008c73ffffffffffffffffffffffffffffffffffffffff1673ffffffffffffffffffffffffffffffffffffffff16815260200190815260200160002060030160009054906101000a900473ffffffffffffffffffffffffffffffffffffffff16600760008d73ffffffffffffffffffffffffffffffffffffffff1673ffffffffffffffffffffffffffffffffffffffff168152602001908152602001600020600701600760008e73ffffffffffffffffffffffffffffffffffffffff1673ffffffffffffffffffffffffffffffffffffffff16815260200190815260200160002060040154600760008f73ffffffffffffffffffffffffffffffffffffffff1673ffffffffffffffffffffffffffffffffffffffff16815260200190815260200160002060050160009054906101000a900460ff1685805461155e9061227f565b80601f016020809104026020016040519081016040528092919081815260200182805461158a9061227f565b80156115d75780601f106115ac576101008083540402835291602001916115d7565b820191906000526020600020905b8154815290600101906020018083116115ba57829003601f168201915b505050505095508480546115ea9061227f565b80601f01602080910402602001604051908101604052809291908181526020018280546116169061227f565b80156116635780601f1061163857610100808354040283529160200191611663565b820191906000526020600020905b81548152906001019060200180831161164657829003601f168201915b505050505094508280546116769061227f565b80601f01602080910402602001604051908101604052809291908181526020018280546116a29061227f565b80156116ef5780601f106116c4576101008083540402835291602001916116ef565b820191906000526020600020905b8154815290600101906020018083116116d257829003601f168201915b505050505092509650965096509650965096509650919395979092949650565b3373ffffffffffffffffffffffffffffffffffffffff16600260009054906101000a900473ffffffffffffffffffffffffffffffffffffffff1673ffffffffffffffffffffffffffffffffffffffff161461179f576040517f08c379a00000000000000000000000000000000000000000000000000000000081526004016117969061275f565b60405180910390fd5b6117a96001611997565b60006117b560016119ad565b90506000600460008873ffffffffffffffffffffffffffffffffffffffff1673ffffffffffffffffffffffffffffffffffffffff16815260200190815260200160002090508581600101908161180b919061245c565b508481600201908161181d919061245c565b5081816000018190555083816003019081611838919061245c565b5060008160040181905550868160050160006101000a81548173ffffffffffffffffffffffffffffffffffffffff021916908373ffffffffffffffffffffffffffffffffffffffff16021790555082816006019081611897919061245c565b506003879080600181540180825580915050600190039060005260206000200160009091909190916101000a81548173ffffffffffffffffffffffffffffffffffffffff021916908373ffffffffffffffffffffffffffffffffffffffff1602179055507f9c3377caaad8cf5294b4cace40440155609c39f917095c885c7e0eb22ebb50638287878785600401548c8960405161193a9796959493929190611eb1565b60405180910390a150505050505050565b6003818154811061195b57600080fd5b906000526020600020016000915054906101000a900473ffffffffffffffffffffffffffffffffffffffff1681565b6000600380549050905090565b6001816000016000828254019250508190555050565b600081600001549050919050565b6000604051905090565b600080fd5b600080fd5b600073ffffffffffffffffffffffffffffffffffffffff82169050919050565b60006119fa826119cf565b9050919050565b611a0a816119ef565b8114611a1557600080fd5b50565b600081359050611a2781611a01565b92915050565b600080fd5b600080fd5b6000601f19601f8301169050919050565b7f4e487b7100000000000000000000000000000000000000000000000000000000600052604160045260246000fd5b611a8082611a37565b810181811067ffffffffffffffff82111715611a9f57611a9e611a48565b5b80604052505050565b6000611ab26119bb565b9050611abe8282611a77565b919050565b600067ffffffffffffffff821115611ade57611add611a48565b5b611ae782611a37565b9050602081019050919050565b82818337600083830152505050565b6000611b16611b1184611ac3565b611aa8565b905082815260208101848484011115611b3257611b31611a32565b5b611b3d848285611af4565b509392505050565b600082601f830112611b5a57611b59611a2d565b5b8135611b6a848260208601611b03565b91505092915050565b60008060008060808587031215611b8d57611b8c6119c5565b5b6000611b9b87828801611a18565b945050602085013567ffffffffffffffff811115611bbc57611bbb6119ca565b5b611bc887828801611b45565b935050604085013567ffffffffffffffff811115611be957611be86119ca565b5b611bf587828801611b45565b925050606085013567ffffffffffffffff811115611c1657611c156119ca565b5b611c2287828801611b45565b91505092959194509250565b6000819050919050565b611c4181611c2e565b82525050565b6000602082019050611c5c6000830184611c38565b92915050565b611c6b816119ef565b82525050565b6000602082019050611c866000830184611c62565b92915050565b611c9581611c2e565b8114611ca057600080fd5b50565b600081359050611cb281611c8c565b92915050565b60008060408385031215611ccf57611cce6119c5565b5b6000611cdd85828601611a18565b9250506020611cee85828601611ca3565b9150509250929050565b600081519050919050565b600082825260208201905092915050565b6000819050602082019050919050565b611d2d816119ef565b82525050565b6000611d3f8383611d24565b60208301905092915050565b6000602082019050919050565b6000611d6382611cf8565b611d6d8185611d03565b9350611d7883611d14565b8060005b83811015611da9578151611d908882611d33565b9750611d9b83611d4b565b925050600181019050611d7c565b5085935050505092915050565b60006020820190508181036000830152611dd08184611d58565b905092915050565b600060208284031215611dee57611ded6119c5565b5b6000611dfc84828501611ca3565b91505092915050565b600060208284031215611e1b57611e1a6119c5565b5b6000611e2984828501611a18565b91505092915050565b600081519050919050565b600082825260208201905092915050565b60005b83811015611e6c578082015181840152602081019050611e51565b60008484015250505050565b6000611e8382611e32565b611e8d8185611e3d565b9350611e9d818560208601611e4e565b611ea681611a37565b840191505092915050565b600060e082019050611ec6600083018a611c38565b8181036020830152611ed88189611e78565b90508181036040830152611eec8188611e78565b90508181036060830152611f008187611e78565b9050611f0f6080830186611c38565b611f1c60a0830185611c62565b81810360c0830152611f2e8184611e78565b905098975050505050505050565b60008115159050919050565b611f5181611f3c565b82525050565b600061010082019050611f6d600083018b611c38565b8181036020830152611f7f818a611e78565b90508181036040830152611f938189611e78565b9050611fa26060830188611c62565b611faf6080830187611c38565b611fbc60a0830186611f48565b611fc960c0830185611c38565b81810360e0830152611fdb8184611e78565b90509998505050505050505050565b600060e0820190508181036000830152612004818a611e78565b905081810360208301526120188189611e78565b90506120276040830188611c38565b81810360608301526120398187611e78565b90506120486080830186611c38565b81810360a083015261205a8185611e78565b905061206960c0830184611c62565b98975050505050505050565b600060e08201905061208a600083018a611c38565b818103602083015261209c8189611e78565b905081810360408301526120b08188611e78565b90506120bf6060830187611c62565b81810360808301526120d18186611e78565b90506120e060a0830185611c38565b6120ed60c0830184611f48565b98975050505050505050565b600080600080600060a08688031215612115576121146119c5565b5b600061212388828901611a18565b955050602086013567ffffffffffffffff811115612144576121436119ca565b5b61215088828901611b45565b945050604086013567ffffffffffffffff811115612171576121706119ca565b5b61217d88828901611b45565b935050606086013567ffffffffffffffff81111561219e5761219d6119ca565b5b6121aa88828901611b45565b925050608086013567ffffffffffffffff8111156121cb576121ca6119ca565b5b6121d788828901611b45565b9150509295509295909350565b7f6572726f72000000000000000000000000000000000000000000000000000000600082015250565b600061221a600583611e3d565b9150612225826121e4565b602082019050919050565b600060208201905081810360008301526122498161220d565b9050919050565b7f4e487b7100000000000000000000000000000000000000000000000000000000600052602260045260246000fd5b6000600282049050600182168061229757607f821691505b6020821081036122aa576122a9612250565b5b50919050565b60008190508160005260206000209050919050565b60006020601f8301049050919050565b600082821b905092915050565b6000600883026123127fffffffffffffffffffffffffffffffffffffffffffffffffffffffffffffffff826122d5565b61231c86836122d5565b95508019841693508086168417925050509392505050565b6000819050919050565b600061235961235461234f84611c2e565b612334565b611c2e565b9050919050565b6000819050919050565b6123738361233e565b61238761237f82612360565b8484546122e2565b825550505050565b600090565b61239c61238f565b6123a781848461236a565b505050565b5b818110156123cb576123c0600082612394565b6001810190506123ad565b5050565b601f821115612410576123e1816122b0565b6123ea846122c5565b810160208510156123f9578190505b61240d612405856122c5565b8301826123ac565b50505b505050565b600082821c905092915050565b600061243360001984600802612415565b1980831691505092915050565b600061244c8383612422565b9150826002028217905092915050565b61246582611e32565b67ffffffffffffffff81111561247e5761247d611a48565b5b612488825461227f565b6124938282856123cf565b600060209050601f8311600181146124c657600084156124b4578287015190505b6124be8582612440565b865550612526565b601f1984166124d4866122b0565b60005b828110156124fc578489015182556001820191506020850194506020810190506124d7565b868310156125195784890151612515601f891682612422565b8355505b6001600288020188555050505b505050505050565b600060e0820190508181036000830152612548818a611e78565b9050818103602083015261255c8189611e78565b905061256b6040830188611c62565b6125786060830187611c38565b6125856080830186611f48565b61259260a0830185611c38565b81810360c08301526125a48184611e78565b905098975050505050505050565b7f796f75206861766520616c726561647920766f74656400000000000000000000600082015250565b60006125e8601683611e3d565b91506125f3826125b2565b602082019050919050565b60006020820190508181036000830152612617816125db565b9050919050565b7f6e6f20726967687420746f20766f746500000000000000000000000000000000600082015250565b6000612654601083611e3d565b915061265f8261261e565b602082019050919050565b6000602082019050818103600083015261268381612647565b9050919050565b7f4e487b7100000000000000000000000000000000000000000000000000000000600052601160045260246000fd5b60006126c482611c2e565b91506126cf83611c2e565b92508282019050808211156126e7576126e661268a565b5b92915050565b7f6f6e6c7920206f7267616e697a65722063616e206164642063616e646964617460008201527f6500000000000000000000000000000000000000000000000000000000000000602082015250565b6000612749602183611e3d565b9150612754826126ed565b604082019050919050565b600060208201905081810360008301526127788161273c565b905091905056fea2646970667358221220a9abbdd90c2750c649f09b3f40158fbf1fc2a2ca049809e5c0dde9fb0dc0784764736f6c63430008130033",
  "linkReferences": {},
  "deployedLinkReferences": {}
}